{"abi":[{"type":"function","name":"RISC0_CALL_GUEST_ID","inputs":[],"outputs":[{"name":"","type":"bytes32","internalType":"bytes32"}],"stateMutability":"view"}],"bytecode":{"object":"0x60a66037600b82828239805160001a607314602a57634e487b7160e01b600052600060045260246000fd5b30600052607381538281f3fe730000000000000000000000000000000000000000301460806040526004361060335760003560e01c8063d7b00be9146038575b600080fd5b605e7f41bc093da3616fb2171cce01c3d2fcadc051bb5eb9caa9a3bac41f9409013d8881565b60405190815260200160405180910390f3fea26469706673582212201dc655a2322d6546e647521919aeb559fa434c593cfd45041e2dd8d08049269464736f6c634300081a0033","linkReferences":{}},"methodIdentifiers":{"RISC0_CALL_GUEST_ID()":"d7b00be9"},"id":47}