{"abi":[{"type":"constructor","inputs":[],"stateMutability":"nonpayable"},{"type":"function","name":"elegible","inputs":[],"outputs":[{"name":"","type":"tuple","internalType":"struct Proof","components":[{"name":"seal","type":"tuple","internalType":"struct Seal","components":[{"name":"verifierSelector","type":"bytes4","internalType":"bytes4"},{"name":"seal","type":"bytes32[8]","internalType":"bytes32[8]"},{"name":"mode","type":"uint8","internalType":"enum ProofMode"}]},{"name":"callGuestId","type":"bytes32","internalType":"bytes32"},{"name":"length","type":"uint256","internalType":"uint256"},{"name":"callAssumptions","type":"tuple","internalType":"struct CallAssumptions","components":[{"name":"proverContractAddress","type":"address","internalType":"address"},{"name":"functionSelector","type":"bytes4","internalType":"bytes4"},{"name":"settleBlockNumber","type":"uint256","internalType":"uint256"},{"name":"settleBlockHash","type":"bytes32","internalType":"bytes32"}]}]},{"name":"","type":"address","internalType":"address"}],"stateMutability":"nonpayable"},{"type":"function","name":"proof","inputs":[],"outputs":[{"name":"","type":"tuple","internalType":"struct Proof","components":[{"name":"seal","type":"tuple","internalType":"struct Seal","components":[{"name":"verifierSelector","type":"bytes4","internalType":"bytes4"},{"name":"seal","type":"bytes32[8]","internalType":"bytes32[8]"},{"name":"mode","type":"uint8","internalType":"enum ProofMode"}]},{"name":"callGuestId","type":"bytes32","internalType":"bytes32"},{"name":"length","type":"uint256","internalType":"uint256"},{"name":"callAssumptions","type":"tuple","internalType":"struct CallAssumptions","components":[{"name":"proverContractAddress","type":"address","internalType":"address"},{"name":"functionSelector","type":"bytes4","internalType":"bytes4"},{"name":"settleBlockNumber","type":"uint256","internalType":"uint256"},{"name":"settleBlockHash","type":"bytes32","internalType":"bytes32"}]}]}],"stateMutability":"pure"},{"type":"function","name":"setBlock","inputs":[{"name":"blockNo","type":"uint256","internalType":"uint256"}],"outputs":[],"stateMutability":"nonpayable"},{"type":"function","name":"setChain","inputs":[{"name":"chainId","type":"uint256","internalType":"uint256"},{"name":"blockNo","type":"uint256","internalType":"uint256"}],"outputs":[],"stateMutability":"nonpayable"}],"bytecode":{"object":"0x60c0604052348015600f57600080fd5b5073139608abee12ff39fedae39c493b571a25995e1060805260805160a0516104de61004a60003960005050600061015b01526104de6000f3fe608060405234801561001057600080fd5b506004361061004c5760003560e01c806387cea3ae14610051578063aea62c8714610066578063faf924cf14610085578063ffbc56381461009a575b600080fd5b61006461005f366004610321565b6100ad565b005b61006e610127565b60405161007c9291906103f7565b60405180910390f35b61008d6101e0565b60405161007c919061041f565b6100646100a8366004610434565b6101f5565b6040516343e751d760e11b8152600481018290527376dc9aa45aa006a0f63942d8f9f21bd4537972a3906387cea3ae906024016020604051808303816000875af11580156100ff573d6000803e3d6000fd5b505050506040513d601f19601f820116820180604052508101906101239190610456565b5050565b61012f61028f565b6000610141612105630156f1706101f5565b6040516331a9108f60e11b815261110760048201526000907f00000000000000000000000000000000000000000000000000000000000000006001600160a01b031690636352211e90602401602060405180830381865afa1580156101aa573d6000803e3d6000fd5b505050506040513d601f19601f820116820180604052508101906101ce919061047f565b90506101d86101e0565b939092509050565b6101e861028f565b6101f061027a565b905090565b60405160016208753960e31b0319815260048101839052602481018290527376dc9aa45aa006a0f63942d8f9f21bd4537972a39063ffbc5638906044016020604051808303816000875af1158015610251573d6000803e3d6000fd5b505050506040513d601f19601f820116820180604052508101906102759190610456565b505050565b61028261028f565b61028a61028f565b919050565b60405180608001604052806102a26102db565b81526000602080830182905260408084018390528051608081018252838152918201839052810182905260608181019290925291015290565b604080516060810190915260008152602081016102f6610302565b81526020016000905290565b6040518061010001604052806008906020820280368337509192915050565b60006020828403121561033357600080fd5b5035919050565b805180516001600160e01b031916835260208082015190840160005b6008811015610375578251825260209283019290910190600101610356565b505050604001516002811061039a57634e487b7160e01b600052602160045260246000fd5b61012083015260208181015161014084015260408083015161016085015260609283015180516001600160a01b0316610180860152918201516001600160e01b0319166101a08501528101516101c084015201516101e090910152565b6102208101610406828561033a565b6001600160a01b03929092166102009190910152919050565b610200810161042e828461033a565b92915050565b6000806040838503121561044757600080fd5b50508035926020909101359150565b60006020828403121561046857600080fd5b8151801515811461047857600080fd5b9392505050565b60006020828403121561049157600080fd5b81516001600160a01b038116811461047857600080fdfea26469706673582212209d443cabb72c0c6e81ef76ca24d7c4d1439a1909551f9e582a5ac02d3949f97864736f6c634300081a0033","linkReferences":{}},"methodIdentifiers":{"elegible()":"aea62c87","proof()":"faf924cf","setBlock(uint256)":"87cea3ae","setChain(uint256,uint256)":"ffbc5638"},"id":33}